{
  "_format": "hh-sol-artifact-1",
  "contractName": "CrossChainBridge",
  "sourceName": "contracts/cross-chain.sol",
  "abi": [
    {
      "inputs": [],
      "stateMutability": "nonpayable",
      "type": "constructor"
    },
    {
      "anonymous": false,
      "inputs": [
        {
          "indexed": false,
          "internalType": "uint256",
          "name": "chainId",
          "type": "uint256"
        },
        {
          "indexed": true,
          "internalType": "address",
          "name": "walletAddress",
          "type": "address"
        },
        {
          "indexed": true,
          "internalType": "address",
          "name": "tokenAddress",
          "type": "address"
        },
        {
          "indexed": false,
          "internalType": "uint256",
          "name": "amount",
          "type": "uint256"
        },
        {
          "indexed": false,
          "internalType": "uint256",
          "name": "fees",
          "type": "uint256"
        }
      ],
      "name": "CrossChainTransferIn",
      "type": "event"
    },
    {
      "anonymous": false,
      "inputs": [
        {
          "indexed": true,
          "internalType": "bytes32",
          "name": "originTxHash",
          "type": "bytes32"
        },
        {
          "indexed": true,
          "internalType": "uint256",
          "name": "originChainId",
          "type": "uint256"
        },
        {
          "indexed": true,
          "internalType": "address",
          "name": "walletAddress",
          "type": "address"
        },
        {
          "indexed": false,
          "internalType": "address",
          "name": "tokenAddress",
          "type": "address"
        },
        {
          "indexed": false,
          "internalType": "uint256",
          "name": "amount",
          "type": "uint256"
        }
      ],
      "name": "CrossChainTransferOut",
      "type": "event"
    },
    {
      "anonymous": false,
      "inputs": [
        {
          "indexed": true,
          "internalType": "address",
          "name": "depositer",
          "type": "address"
        },
        {
          "indexed": false,
          "internalType": "uint256",
          "name": "amount",
          "type": "uint256"
        }
      ],
      "name": "Deposit",
      "type": "event"
    },
    {
      "anonymous": false,
      "inputs": [
        {
          "indexed": true,
          "internalType": "address",
          "name": "caller",
          "type": "address"
        },
        {
          "indexed": false,
          "internalType": "uint256",
          "name": "amount",
          "type": "uint256"
        }
      ],
      "name": "Withdraw",
      "type": "event"
    },
    {
      "inputs": [
        {
          "internalType": "uint256",
          "name": "chainId",
          "type": "uint256"
        },
        {
          "internalType": "address",
          "name": "tokenAddress",
          "type": "address"
        },
        {
          "internalType": "uint256",
          "name": "amount",
          "type": "uint256"
        }
      ],
      "name": "crossChainTransferIn",
      "outputs": [],
      "stateMutability": "payable",
      "type": "function"
    },
    {
      "inputs": [
        {
          "internalType": "bytes32",
          "name": "originTxHash",
          "type": "bytes32"
        },
        {
          "internalType": "uint256",
          "name": "originChainId",
          "type": "uint256"
        },
        {
          "internalType": "address",
          "name": "tokenAddress",
          "type": "address"
        },
        {
          "internalType": "address",
          "name": "toWallet",
          "type": "address"
        },
        {
          "internalType": "uint256",
          "name": "amount",
          "type": "uint256"
        }
      ],
      "name": "crossChainTransferOut",
      "outputs": [],
      "stateMutability": "nonpayable",
      "type": "function"
    },
    {
      "inputs": [
        {
          "internalType": "address",
          "name": "tokenAddress",
          "type": "address"
        },
        {
          "internalType": "uint256",
          "name": "amount",
          "type": "uint256"
        }
      ],
      "name": "deposit",
      "outputs": [],
      "stateMutability": "payable",
      "type": "function"
    },
    {
      "inputs": [
        {
          "internalType": "address",
          "name": "",
          "type": "address"
        }
      ],
      "name": "deposits",
      "outputs": [
        {
          "internalType": "uint256",
          "name": "",
          "type": "uint256"
        }
      ],
      "stateMutability": "view",
      "type": "function"
    },
    {
      "inputs": [],
      "name": "feesPercentage",
      "outputs": [
        {
          "internalType": "uint256",
          "name": "",
          "type": "uint256"
        }
      ],
      "stateMutability": "view",
      "type": "function"
    },
    {
      "inputs": [],
      "name": "gasPrice",
      "outputs": [
        {
          "internalType": "uint256",
          "name": "",
          "type": "uint256"
        }
      ],
      "stateMutability": "view",
      "type": "function"
    },
    {
      "inputs": [
        {
          "internalType": "address",
          "name": "tokenAddress",
          "type": "address"
        },
        {
          "internalType": "uint256",
          "name": "amount",
          "type": "uint256"
        }
      ],
      "name": "getFees",
      "outputs": [
        {
          "internalType": "uint256",
          "name": "",
          "type": "uint256"
        }
      ],
      "stateMutability": "view",
      "type": "function"
    },
    {
      "inputs": [],
      "name": "owner",
      "outputs": [
        {
          "internalType": "address",
          "name": "",
          "type": "address"
        }
      ],
      "stateMutability": "view",
      "type": "function"
    },
    {
      "inputs": [],
      "name": "ratio",
      "outputs": [
        {
          "internalType": "uint256",
          "name": "",
          "type": "uint256"
        }
      ],
      "stateMutability": "view",
      "type": "function"
    },
    {
      "inputs": [
        {
          "internalType": "uint256",
          "name": "_feesPercentage",
          "type": "uint256"
        }
      ],
      "name": "setFeesPercentage",
      "outputs": [],
      "stateMutability": "nonpayable",
      "type": "function"
    },
    {
      "inputs": [
        {
          "internalType": "uint256",
          "name": "_gasPrice",
          "type": "uint256"
        }
      ],
      "name": "setGasPrice",
      "outputs": [],
      "stateMutability": "nonpayable",
      "type": "function"
    },
    {
      "inputs": [
        {
          "internalType": "uint256",
          "name": "_ratio",
          "type": "uint256"
        }
      ],
      "name": "setRatio",
      "outputs": [],
      "stateMutability": "nonpayable",
      "type": "function"
    },
    {
      "inputs": [
        {
          "internalType": "address",
          "name": "tokenAddress",
          "type": "address"
        },
        {
          "internalType": "uint256",
          "name": "amount",
          "type": "uint256"
        }
      ],
      "name": "withdraw",
      "outputs": [],
      "stateMutability": "nonpayable",
      "type": "function"
    }
  ],
  "bytecode": "0x6080604052603260015534801561001557600080fd5b50336000806101000a81548173ffffffffffffffffffffffffffffffffffffffff021916908373ffffffffffffffffffffffffffffffffffffffff160217905550611458806100656000396000f3fe6080604052600436106100c25760003560e01c8063b2237ba31161007f578063efb36c1411610059578063efb36c1414610224578063f3fef3a314610261578063fc7e286d1461028a578063fe173b97146102c7576100c2565b8063b2237ba3146101a9578063bf1fe420146101d2578063c9cb1405146101fb576100c2565b8063213ecbba146100c75780632ca25150146100f257806347e7ef241461011b578063539a24821461013757806371ca337d146101535780638da5cb5b1461017e575b600080fd5b3480156100d357600080fd5b506100dc6102f2565b6040516100e99190610d4e565b60405180910390f35b3480156100fe57600080fd5b5061011960048036038101906101149190610e2e565b6102f8565b005b61013560048036038101906101309190610ea9565b61051d565b005b610151600480360381019061014c9190610ee9565b610700565b005b34801561015f57600080fd5b506101686107f4565b6040516101759190610d4e565b60405180910390f35b34801561018a57600080fd5b506101936107fa565b6040516101a09190610f4b565b60405180910390f35b3480156101b557600080fd5b506101d060048036038101906101cb9190610f66565b61081e565b005b3480156101de57600080fd5b506101f960048036038101906101f49190610f66565b6108b6565b005b34801561020757600080fd5b50610222600480360381019061021d9190610f66565b61094e565b005b34801561023057600080fd5b5061024b60048036038101906102469190610ea9565b610a2b565b6040516102589190610d4e565b60405180910390f35b34801561026d57600080fd5b5061028860048036038101906102839190610ea9565b610aaf565b005b34801561029657600080fd5b506102b160048036038101906102ac9190610f93565b610d17565b6040516102be9190610d4e565b60405180910390f35b3480156102d357600080fd5b506102dc610d2f565b6040516102e99190610d4e565b60405180910390f35b60035481565b60008054906101000a900473ffffffffffffffffffffffffffffffffffffffff1673ffffffffffffffffffffffffffffffffffffffff163373ffffffffffffffffffffffffffffffffffffffff1614610386576040517f08c379a000000000000000000000000000000000000000000000000000000000815260040161037d9061101d565b60405180910390fd5b600073ffffffffffffffffffffffffffffffffffffffff168373ffffffffffffffffffffffffffffffffffffffff1603610406573373ffffffffffffffffffffffffffffffffffffffff166108fc829081150290604051600060405180830381858888f19350505050158015610400573d6000803e3d6000fd5b506104c4565b8273ffffffffffffffffffffffffffffffffffffffff1663a9059cbb83836040518363ffffffff1660e01b815260040161044192919061103d565b6020604051808303816000875af1158015610460573d6000803e3d6000fd5b505050506040513d601f19601f82011682018060405250810190610484919061109e565b6104c3576040517f08c379a00000000000000000000000000000000000000000000000000000000081526004016104ba90611117565b60405180910390fd5b5b8173ffffffffffffffffffffffffffffffffffffffff1684867f623420b1c4ec1f399ad53b6c0f1de1408c4b4250995b050b905cd9d591a52d0e868560405161050e92919061103d565b60405180910390a45050505050565b80600460003373ffffffffffffffffffffffffffffffffffffffff1673ffffffffffffffffffffffffffffffffffffffff168152602001908152602001600020600082825461056c9190611166565b92505081905550600073ffffffffffffffffffffffffffffffffffffffff168273ffffffffffffffffffffffffffffffffffffffff16036105ee578034146105e9576040517f08c379a00000000000000000000000000000000000000000000000000000000081526004016105e0906111e6565b60405180910390fd5b6106ae565b8173ffffffffffffffffffffffffffffffffffffffff166323b872dd3330846040518463ffffffff1660e01b815260040161062b93929190611206565b6020604051808303816000875af115801561064a573d6000803e3d6000fd5b505050506040513d601f19601f8201168201806040525081019061066e919061109e565b6106ad576040517f08c379a00000000000000000000000000000000000000000000000000000000081526004016106a490611117565b60405180910390fd5b5b3373ffffffffffffffffffffffffffffffffffffffff167fe1fffcc4923d04b559f4d29a8bfc6cda04eb5b0d3c460751c2402c5c5cc9109c826040516106f49190610d4e565b60405180910390a25050565b600061070c8383610a2b565b9050600073ffffffffffffffffffffffffffffffffffffffff168373ffffffffffffffffffffffffffffffffffffffff160361078557813414610784576040517f08c379a000000000000000000000000000000000000000000000000000000000815260040161077b906111e6565b60405180910390fd5b5b8273ffffffffffffffffffffffffffffffffffffffff163373ffffffffffffffffffffffffffffffffffffffff167fd7eeb7e4a94605af470f39b5fe54b05f6e4c9458d1865299e2272172bd643a0e8685856040516107e69392919061123d565b60405180910390a350505050565b60015481565b60008054906101000a900473ffffffffffffffffffffffffffffffffffffffff1681565b60008054906101000a900473ffffffffffffffffffffffffffffffffffffffff1673ffffffffffffffffffffffffffffffffffffffff163373ffffffffffffffffffffffffffffffffffffffff16146108ac576040517f08c379a00000000000000000000000000000000000000000000000000000000081526004016108a39061101d565b60405180910390fd5b8060018190555050565b60008054906101000a900473ffffffffffffffffffffffffffffffffffffffff1673ffffffffffffffffffffffffffffffffffffffff163373ffffffffffffffffffffffffffffffffffffffff1614610944576040517f08c379a000000000000000000000000000000000000000000000000000000000815260040161093b9061101d565b60405180910390fd5b8060028190555050565b60008054906101000a900473ffffffffffffffffffffffffffffffffffffffff1673ffffffffffffffffffffffffffffffffffffffff163373ffffffffffffffffffffffffffffffffffffffff16146109dc576040517f08c379a00000000000000000000000000000000000000000000000000000000081526004016109d39061101d565b60405180910390fd5b612710811115610a21576040517f08c379a0000000000000000000000000000000000000000000000000000000008152600401610a18906112c0565b60405180910390fd5b8060038190555050565b600080600073ffffffffffffffffffffffffffffffffffffffff168473ffffffffffffffffffffffffffffffffffffffff1603610a6c576152089050610a73565b6201388090505b60025481610a8191906112e0565b61271060035485610a9291906112e0565b610a9c9190611351565b610aa69190611166565b91505092915050565b80600460003373ffffffffffffffffffffffffffffffffffffffff1673ffffffffffffffffffffffffffffffffffffffff168152602001908152602001600020541015610b31576040517f08c379a0000000000000000000000000000000000000000000000000000000008152600401610b28906113ce565b60405180910390fd5b80600460003373ffffffffffffffffffffffffffffffffffffffff1673ffffffffffffffffffffffffffffffffffffffff1681526020019081526020016000206000828254610b8091906113ee565b92505081905550600073ffffffffffffffffffffffffffffffffffffffff168273ffffffffffffffffffffffffffffffffffffffff1603610c07573373ffffffffffffffffffffffffffffffffffffffff166108fc829081150290604051600060405180830381858888f19350505050158015610c01573d6000803e3d6000fd5b50610cc5565b8173ffffffffffffffffffffffffffffffffffffffff1663a9059cbb33836040518363ffffffff1660e01b8152600401610c4292919061103d565b6020604051808303816000875af1158015610c61573d6000803e3d6000fd5b505050506040513d601f19601f82011682018060405250810190610c85919061109e565b610cc4576040517f08c379a0000000000000000000000000000000000000000000000000000000008152600401610cbb90611117565b60405180910390fd5b5b3373ffffffffffffffffffffffffffffffffffffffff167f884edad9ce6fa2440d8a54cc123490eb96d2768479d49ff9c7366125a942436482604051610d0b9190610d4e565b60405180910390a25050565b60046020528060005260406000206000915090505481565b60025481565b6000819050919050565b610d4881610d35565b82525050565b6000602082019050610d636000830184610d3f565b92915050565b600080fd5b6000819050919050565b610d8181610d6e565b8114610d8c57600080fd5b50565b600081359050610d9e81610d78565b92915050565b610dad81610d35565b8114610db857600080fd5b50565b600081359050610dca81610da4565b92915050565b600073ffffffffffffffffffffffffffffffffffffffff82169050919050565b6000610dfb82610dd0565b9050919050565b610e0b81610df0565b8114610e1657600080fd5b50565b600081359050610e2881610e02565b92915050565b600080600080600060a08688031215610e4a57610e49610d69565b5b6000610e5888828901610d8f565b9550506020610e6988828901610dbb565b9450506040610e7a88828901610e19565b9350506060610e8b88828901610e19565b9250506080610e9c88828901610dbb565b9150509295509295909350565b60008060408385031215610ec057610ebf610d69565b5b6000610ece85828601610e19565b9250506020610edf85828601610dbb565b9150509250929050565b600080600060608486031215610f0257610f01610d69565b5b6000610f1086828701610dbb565b9350506020610f2186828701610e19565b9250506040610f3286828701610dbb565b9150509250925092565b610f4581610df0565b82525050565b6000602082019050610f606000830184610f3c565b92915050565b600060208284031215610f7c57610f7b610d69565b5b6000610f8a84828501610dbb565b91505092915050565b600060208284031215610fa957610fa8610d69565b5b6000610fb784828501610e19565b91505092915050565b600082825260208201905092915050565b7f4e6f742074686520636f6e7472616374206f776e657200000000000000000000600082015250565b6000611007601683610fc0565b915061101282610fd1565b602082019050919050565b6000602082019050818103600083015261103681610ffa565b9050919050565b60006040820190506110526000830185610f3c565b61105f6020830184610d3f565b9392505050565b60008115159050919050565b61107b81611066565b811461108657600080fd5b50565b60008151905061109881611072565b92915050565b6000602082840312156110b4576110b3610d69565b5b60006110c284828501611089565b91505092915050565b7f5472616e73666572206661696c65640000000000000000000000000000000000600082015250565b6000611101600f83610fc0565b915061110c826110cb565b602082019050919050565b60006020820190508181036000830152611130816110f4565b9050919050565b7f4e487b7100000000000000000000000000000000000000000000000000000000600052601160045260246000fd5b600061117182610d35565b915061117c83610d35565b925082820190508082111561119457611193611137565b5b92915050565b7f53656e742076616c7565206d69736d6174636800000000000000000000000000600082015250565b60006111d0601383610fc0565b91506111db8261119a565b602082019050919050565b600060208201905081810360008301526111ff816111c3565b9050919050565b600060608201905061121b6000830186610f3c565b6112286020830185610f3c565b6112356040830184610d3f565b949350505050565b60006060820190506112526000830186610d3f565b61125f6020830185610d3f565b61126c6040830184610d3f565b949350505050565b7f496e76616c69642070657263656e746167650000000000000000000000000000600082015250565b60006112aa601283610fc0565b91506112b582611274565b602082019050919050565b600060208201905081810360008301526112d98161129d565b9050919050565b60006112eb82610d35565b91506112f683610d35565b925082820261130481610d35565b9150828204841483151761131b5761131a611137565b5b5092915050565b7f4e487b7100000000000000000000000000000000000000000000000000000000600052601260045260246000fd5b600061135c82610d35565b915061136783610d35565b92508261137757611376611322565b5b828204905092915050565b7f496e73756666696369656e74206465706f73697465642066756e647300000000600082015250565b60006113b8601c83610fc0565b91506113c382611382565b602082019050919050565b600060208201905081810360008301526113e7816113ab565b9050919050565b60006113f982610d35565b915061140483610d35565b925082820390508181111561141c5761141b611137565b5b9291505056fea26469706673582212203ebfacb2dd53be314bcac4566e2fd5784467266e7e823a754a3704d5a36ce5cb64736f6c63430008110033",
  "linkReferences": {},
  "deployedLinkReferences": {}
}